:020000040800F2
:1000000000800120116200086D5E00086F5E00082C
:10001000715E0008735E0008755E00080000000055
:10002000000000000000000000000000775E0008F3
:10003000795E0008000000007B5E00087D5E00081D
:100040006162000861620008616200086162000884
:100050006162000861620008616200086162000874
:100060006162000861620008616200086162000864
:100070006162000861620008616200086162000854
:100080006162000861620008616200086162000844
:100090006162000861620008616200086162000834
:1000A0006162000861620008616200086162000824
:1000B0006162000861620008616200086162000814
:1000C0006162000861620008616200086162000804
:1000D00061620008616200086162000861620008F4
:1000E00061620008616200086162000861620008E4
:1000F00061620008616200086162000861620008D4
:1001000061620008616200086162000861620008C3
:1001100061620008616200086162000861620008B3
:1001200061620008616200086162000861620008A3
:100130006162000861620008616200086162000893
:10014000616200086162000861620008855E000863
:100150006162000861620008616200086162000873
:100160006162000861620008616200086162000863
:10017000616200086162000861620008000000001E
:080180006162000861620008E1
:1001880010B5054C237833B9044B13B10448AFF3C9
:1001980000800123237010BD9000002000000000A3
:1001A8005C64000808B5034B1BB103490348AFF36F
:1001B800008008BD00000000940000205C64000876
:1001C80053B94AB9002908BF00281CBF4FF0FF31B6
:1001D8004FF0FF3000F072B9ADF1080C6DE904CEB4
:1001E80000F006F8DDF804E0DDE9022304B070470A
:1001F8002DE9F047089E04468846002B4BD18A42D9
:10020800154667D9B2FA82F24AB1C2F1200701FA5B
:1002180002F320FA07F7954047EA030894404FEAAB
:10022800154E230CB8FBFEF71FFA85FC0EFB17884A
:1002380043EA084307FB0CF1994209D9EB1807F187
:10024800FF3080F01B81994240F21881023F2B4415
:100258005B1AA4B2B3FBFEF00EFB103344EA03446E
:1002680000FB0CFCA44509D92C1900F1FF3380F0E0
:100278000781A44540F2048102382C4440EA074033
:10028800A4EB0C0400271EB1D4400023C6E90043A8
:100298003946BDE8F0878B4209D9002E00F0EB8083
:1002A8000027C6E9000138463946BDE8F087B3FAA9
:1002B80083F7002F47D18B4202D3824200F2FA80A3
:1002C800841A61EB030301209846002EE0D0C6E9AA
:1002D8000048DDE702B9FFDEB2FA82F2002A40F0F8
:1002E8008F80491B4FEA154E1FFA85F80127B1FB8D
:1002F800FEFC230C0EFB1C1143EA014308FB0CF126
:10030800994207D9EB180CF1FF3002D2994200F25A
:10031800CD808446591AA3B2B1FBFEF00EFB10142F
:1003280043EA044408FB00F8A04507D92C1900F15A
:10033800FF3302D2A04500F2B6801846A4EB0804A9
:1003480040EA0C409FE7C7F1200CBB4022FA0CFEA4
:100358004EEA030E01FA07F420FA0CF521FA0CF321
:100368004FEA1E482543B3FBF8F92C0C08FB193358
:100378001FFA8EFA44EA034309FB0AF49C4202FA84
:1003880007F200FA07F10BD91EEB030309F1FF305E
:1003980080F087809C4240F28480A9F1020973446E
:1003A8001B1BADB2B3FBF8F008FB103345EA03445E
:1003B80000FB0AFAA24508D91EEB040400F1FF333A
:1003C8006BD2A24569D90238744440EA0940A0FBBF
:1003D8000289A4EB0A044C45C2464B4654D351D07B
:1003E800002E69D0B1EB0A0564EB030404FA0CFC97
:1003F800FD40FC404CEA0505C6E90054002747E7E4
:10040800C2F1200320FA03F7954001FA02F021FA1D
:1004180003F34FEA154E3843010CB3FBFEF71FFAFE
:1004280085F80EFB173341EA034107FB08F38B42BB
:1004380004FA02F407D9691807F1FF3C2FD28B425E
:100448002DD9023F2944CB1A81B2B3FBFEF00EFB33
:10045800103341EA034100FB08F38B4207D96918BE
:1004680000F1FF3C17D28B4215D902382944C91A2A
:1004780040EA07473BE73746304609E70746E7E6DD
:100488001846FBE64145ABD2B8EB020A69EB0E020F
:1004980001381346A4E76046E9E7184695E767463A
:1004A800D1E781467CE702382C4447E7ACF1020CDF
:1004B8002B442FE7384608E73746E9E6704700BF80
:1004C800104B1B680BB90120704710B504464FF458
:1004D8007A70B0FBF3F30C4A1068B0FBF3F000F04D
:1004E800A5F868B90F2C01D901200AE0002221469D
:1004F8004FF0FF3000F058F8024B5C60002000E03D
:10050800012010BD000000202800002010B5094A75
:10051800136843F480731360032000F033F800205D
:10052800FFF7CEFF10B10124204610BD044605F0A8
:10053800A7FAF9E700200240034A1368034909684B
:100548000B441360704700BFCC000020000000205F
:10055800014B1868704700BFCC00002038B504462E
:10056800FFF7F6FF0546B4F1FF3F02D0044B1B68C6
:100578001C44FFF7EDFF401BA042FAD338BD00BF73
:1005880000000020074AD36823F4E0631B041B0C17
:10059800000200F4E060184340F0BF6040F400300F
:1005A800D060704700ED00E030B4174BDB68C3F350
:1005B8000223C3F10704042C28BF04241D1D062DA3
:1005C80018D9033B4FF0FF3505FA04F421EA04017A
:1005D800994005FA03F322EA0303194300280BDBC9
:1005E8000901C9B200F1604000F5614080F80013CC
:1005F80030BC70470023E5E700F00F000901C9B2DD
:10060800024B1954F4E700BF00ED00E014ED00E0E0
:10061800002807DB00F01F02400901239340024A2B
:1006280042F82030704700BF00E100E00138B0F127
:10063800807F0AD2064B5860064AF02182F82310C0
:100648000020986007221A6070470120704700BF99
:1006580010E000E000ED00E0F0B482B0002341E0DB
:10066800D0F82CC02CEA040CC6F3C0049C4044EA21
:100678000C04C46286E0062400E00024B4403C4335
:100688000235664E46F82540654C2568D44304EA91
:1006980005064F6817F4803F01D042EA0506604D11
:1006A8002E606D6804EA05064F6817F4003F01D014
:1006B80042EA05065A4D6E60AD6804EA05064F68C1
:1006C80017F4801F01D042EA0506554DAE60ED686B
:1006D8002C404E6816F4001F01D042EA0504504A27
:1006E800D46001330A6832FA03F400F093800124DD
:1006F8009C402240F5D04D68022D01D0122D10D11A
:10070800DE08083650F826C003F00705AF000F25AD
:10071800BD402CEA050C0D69BD4045EA0C0540F8C2
:10072800265006685F000325BD40ED4305EA060C28
:100738004E6806F00306BE4046EA0C0606604E68A0
:1007480006F1FF3CBCF1010F03D9112E01D0122E86
:1007580011D1866805EA060CCE68BE4046EA0C064A
:100768008660466826EA040C4E68C6F300169E406A
:1007780046EA0C0646604E6806F0030CBCF1030F0F
:100788003FF46EAFC46825408C68BC402C43C460FD
:100798004C6814F0805FA4D0224C256E45F001050A
:1007A8002566246E04F001040194019C9D08AE1C8A
:1007B8001A4C54F8267003F00304A6000F24B44022
:1007C80027EA0407B0F1904F3FF457AF164CA04208
:1007D80016D004F58064A04214D004F58064A042C9
:1007E80012D004F58064A04210D004F58064A042C1
:1007F8000ED004F58064A0423FF43DAF07243DE7E6
:1008080001243BE7022439E7032437E7042435E7CA
:10081800052433E702B0F0BC704700BF0000014078
:100828000004014000100240000400480AB9816237
:100838007047816170470000F8B50668346A04F0B3
:100848000F07C4F34343C4F30A14022B2ED16CB32D
:1008580007EB8702D3000344596C39B30546224697
:10086800304603F029FCBA003A44D3002B445A6CB2
:1008780022445A64DA6C2244DA6406EB4713D3F84C
:1008880010150B4A0A408AB1D3F8002522F080429D
:1008980042F00042C3F80025BB00D919CA002A4417
:1008A80092F8503083F0010382F85030F8BD00BF51
:1008B8000000F81FF0B585B09DF828509DF82C6011
:1008C800BDF8307090F8B842012C41D0012480F86E
:1008D800B8424FEA810C8C444FEACC0404444FF0F0
:1008E800000C84F83DC084F83830A4F8407084F8CF
:1008F800391084F83F6002F07F0C84F83AC012F097
:10090800800F1BD101EB810C4FEACC0404444FF05B
:10091800000C84F83BC0044601EB810C4FEACC0084
:10092800204480F83C50029701960095206803F017
:10093800A3FC002384F8B83205B0F0BD01EB810CAC
:100948004FEACC0404444FF0010C84F83BC0E2E7C2
:100958000220F1E790F8B832012B0BD010B504460D
:10096800012380F8B832006803F08DFD002084F878
:10097800B80210BD02207047002845D0F0B58BB0F2
:100988000646046890F8B932002B38D0032386F85D
:10099800B932E36B13F4807F01D1002333613068EF
:1009A80003F033FB344654F810CB6D460FCC0FC51B
:1009B8000FCC0FC594E8030085E80300371D97E8BE
:1009C8000E00604603F0E2FA0121306803F023FBD1
:1009D800344654F810CB6D460FCC0FC50FCC0FC55D
:1009E80094E8030085E8030097E80E00604603F0EA
:1009F800E1FB012386F8B93200200BB0F0BD80F886
:100A0800B83205F0C3FAC1E701207047F8B59DF880
:100A18001870BDF820608D000D44EC00044484F883
:100A28003B2084F83F306FB901EB8105EC000444AA
:100A3800032584F84250032B00F29680DFE803F088
:100A48000A8D2F5E01EB8105EC000444022584F831
:100A58004250F0E7012F40F08780002A40F0848060
:100A680036B901EB8102D3000344012283F85120F7
:100A780001EB8102D300034493F851303BB901EBF9
:100A88008102D3000344002283F842206CE001EB8A
:100A98008102D3000344022283F8422064E0B2B901
:100AA80001EB8102D300034493F851303BB901EBC9
:100AB8008102D3000344002283F8422054E001EB72
:100AC8008102D3000344022283F842204CE001EB68
:100AD8008102D300034493F850303BB901EB810203
:100AE800D3000344002283F842203DE001EB810259
:100AF800D3000344022283F8422035E0B2B901EB67
:100B08008102D300034493F851303BB901EB8102D1
:100B1800D3000344002283F8422025E001EB810240
:100B2800D3000344022283F842201DE001EB810236
:100B3800D300034493F850303BB901EB8102D30052
:100B48000344002283F842200EE001EB8102D30027
:100B58000344022283F8422006E001EB8102D3001D
:100B68000344002283F842208A005418E300034417
:100B7800079C5C649E64002483F85C40DC6483F812
:100B8800391083F85D401144CB0003F1380101446A
:100B9800006803F0EBFBF8BD30B583B00546046888
:100BA800D4F840340193D4F840340093009B23F0E8
:100BB8002E030093019B13F0020F07D0019B13F043
:100BC800010F28D1009B43F002030093019B13F00F
:100BD800080F13D0009B43F008030093019B13F008
:100BE800040F34D0AB69022B1CD0EB68012B29D041
:100BF800284605F02EFA284605F01EFA019B13F048
:100C0800200F03D0009B43F020030093009BC4F8FF
:100C1800403403B030BDA36923F00053A36105F04D
:100C28000BFACFE7019B03F4C023B3F5802F04D060
:100C38000121286803F05CFADAE70221286803F04A
:100C480057FAD5E74EF66022C4F80424D0E72846C0
:100C580005F005FAD4F8403423F02E03C4F84034E4
:100C68002A68936943F000539361C7E7F8B50646CD
:100C78000D46076807EB411707F5A064A36813F052
:100C8800040F31D00423A360E36843F00203E36058
:100C9800A36813F4007F5DD1A36813F0010F7AD025
:100CA800AA002A44D3003344012283F85D2000219E
:100CB8009965A26093F83F30002B57D0022B55D08E
:100CC800032B5DD1D7F8003543F00053C7F8003542
:100CD80005EB8502D3003344012283F85C202946C2
:100CE800304605F0B5F94BE0A36813F0200F02D0A9
:100CF8002023A360CCE7A36813F0080F17D1A368DB
:100D080013F4806FC4D0E36843F00203E360006823
:100D180003F0B9FB1023A36005EB8502D30033442D
:100D2800082283F85D204FF48063A360B0E7E3688E
:100D380043F00203E36001EB8102D3000344052280
:100D480083F85D201023A3600823A360006803F0E4
:100D58009AFB9DE7E36843F00203E36029463068A5
:100D680003F091FB4FF40073A36013E0E36843F0D2
:100D78000203E3602946306803F085FB1023A36073
:100D8800AB005919CA00324492F8503083F001037D
:100D980082F85030F8BDA36813F0020F62D0E36800
:100DA80023F00203E36005EB8502D300334493F894
:100DB8005D30012B17D0052B29D0062B2FD0082BFF
:100DC8002DD0032B16D105EB8502D3003344022224
:100DD80083F85C20D7F8003523F0804343F00043C4
:100DE800C7F8003506E005EB8502D300334401223D
:100DF80083F85C200223A36005EB8502D30033440B
:100E080093F85C202946304605F022F9C2E705EB45
:100E18008502D3003344052283F85C20EAE7AA0060
:100E28002A44D30033449A6D01329A65032A11D9B2
:100E3800AA002A44D300334400229A65042283F886
:100E48005C20D7F8003523F0804343F00043C7F80F
:100E58000035CFE705EB8502D3003344022283F83F
:100E68005C20EEE7A36813F0800F25D1A36813F088
:100E7800100F8FD005EB8502D300334493F83F3031
:100E8800032B31D00BB1022B13D1AB005919CA0077
:100E98003244002191652B44DA003244032382F85E
:100EA8005D30E36843F00203E3602946306803F0ED
:100EB800EAFA1023A3606DE7E36843F00203E360F6
:100EC800AB005919CA003244916D013191652B4428
:100ED800DA003244062382F85D302946306803F090
:100EE800D2FA8023A36055E705EB8502D30033448B
:100EF80000229A65E36843F00203E36029463068FC
:100F080003F0C1FAD5E7F8B5036803EB411303F51D
:100F1800A064A26812F0040F24D10E460546A26808
:100F280012F0200F25D02023A36001EB8102D3000B
:100F38001A46034493F83D30012B19D18B00024423
:100F4800002182F83D103344DA000244022382F87B
:100F58005C30E36843F00203E3603146006803F065
:100F680092FA05E00423A360E36843F00203E36018
:100F7800F8BDA26812F0400F56D1A26812F4007FA3
:100F88006CD1A26812F0010F73D1A26812F0080F99
:100F980040F08480A26812F0100F40F09080A268A0
:100FA80012F0800F40F0A280A26812F4806F40F027
:100FB800AE80A26812F0020FDAD0E26822F00202D4
:100FC800E26001EB8101CA001146024492F85D20FB
:100FD800012A00F0B080032A00F0CE80042A00F035
:100FE800D380052A00F0D880062A02D0082A40F0CB
:100FF800AD80B1003144CA002A44916D0131916538
:10100800032940F2D180282202FB06520021916573
:10101800042182F85C10D3F8002522F0804242F0C7
:101028000042C3F8002591E08B005918CA00024419
:10103800042182F85D10012182F83D103344DA0062
:10104800024400239365E36843F00203E3603146FA
:10105800006803F018FA4023A36089E7E36843F0C7
:101068000203E360006803F00EFA4FF40073A36014
:101078007EE78F007A18D300034400229A65E3685C
:1010880043F00203E360006803F0FDF90123A36065
:10109800B919C800284480F85D3069E70823A360BF
:1010A800E36843F00203E360006803F0ECF906EB41
:1010B8008601C8002844052380F85D3058E78B0076
:1010C8005918CA000244002191653344DA000244E9
:1010D800032382F85D30E36843F00203E36031469E
:1010E800006803F0D0F91023A36041E7E36843F0F8
:1010F8000203E360006803F0C6F906EB8601CB0043
:101108002B44062283F85D208023A36030E7E36840
:1011180043F00203E360006803F0B5F91023A3600D
:101128004FF48063A36006EB8601CB002B440822B2
:1011380083F85D201CE70B460344012283F85C20FA
:1011480093F83F30023BDBB293420CD90223A360F1
:1011580006EB8602D3002B4493F85C2031462846E0
:1011680004F076FF04E70B46034493F8512082F01D
:10117800010283F85120E9E706EB8602D300034415
:10118800022283F85C20E1E706EB8602D3000344E1
:10119800022283F85C20D9E706EB8602D3000344D9
:1011A800052283F85C20D1E7282202FB065202219F
:1011B80082F85C102FE7F8B504460568284602F067
:1011C80093FF012800D0F8BD206802F089FF0028AD
:1011D800F9D0206802F084FF10F4001F03D02368C0
:1011E8004FF400125A61206802F07AFF10F4801F51
:1011F80003D023684FF480125A61206802F070FF10
:1012080010F0806F03D023684FF080625A61206825
:1012180002F066FF10F0020F02D0236802225A6122
:10122800206802F05DFF10F0005F25D1206802F011
:1012380057FF10F0807F31D1206802F051FF10F085
:10124800080F2FD1206802F04BFF10F0007F30D13B
:10125800206802F045FF10F0100FB4D0226893699F
:1012680023F0100393612046FFF7E6FA226893699A
:1012780043F010039361A6E7D5F8403423F02E031A
:10128800C5F84034204604F0DDFE0121206802F054
:101298002FFF23684FF000525A61C7E72046FFF737
:1012A8007BFCC9E7204604F0C1FE236808225A6186
:1012B800C8E7206803F0E2F80746002604E0F1B228
:1012C8002046FFF720FE0136A368B34212D906F084
:1012D8000F0327FA03F313F0010FF4D005EB4613BD
:1012E800D3F8003513F4004FE9D0F1B22046FFF7E8
:1012F800BDFCE8E723684FF000725A61A8E738B5EB
:1013080090F8B832012B0ED00446012580F8B85267
:10131800006802F074FE2946206802F028FF0020C9
:1013280084F8B80238BD0220FCE790F8B832012BE7
:101338000BD010B50446012380F8B832006803F0DA
:101348000AF9002084F8B80210BD0220704708B5D9
:10135800006802F0EDFE08BD01EB8101CB001844E6
:1013680090F85C00704701EB8101CB001844C06C19
:10137800704708B5006802F07AFF08BD08B5006834
:1013880002F06AFF08BD002859D010B5044690F84D
:101398004130002B43D0242384F84130226813685D
:1013A80023F0010313606368226823F070631361FC
:1013B8002268936823F400439360E368012B33D0D9
:1013C800A368226843F404439360E368022B31D096
:1013D8002268536843F0007343F400435360226863
:1013E800D36823F40043D360236962691343A16976
:1013F800226843EA0123D360E369216A22680B4328
:1014080013602268136843F00103136000206064CE
:10141800202384F84130206384F8420010BD80F80E
:10142800403004F045FBB6E7A368226843F4004364
:101438009360CAE723684FF400625A60C8E7012046
:10144800704790F84130DBB2202B24D190F840301F
:10145800012B22D0012380F84030242380F841302A
:101468000268136823F0010313600268136823F409
:101478008053136002681368194311600268136887
:1014880043F001031360202380F84130002380F8E3
:10149800403018467047022070470220704790F885
:1014A8004130DBB2202B22D190F84030012B20D0E4
:1014B800012380F84030242380F841300268136803
:1014C80023F0010313600268136823F4706343EA8E
:1014D800012111600268136843F00103136020239F
:1014E80080F84130002380F84030184670470220C9
:1014F80070470220704738B50446FFF729F80546BB
:1015080023689B6813F0200F09D1FFF721F8401BCF
:10151800B0F57A7FF4D90123A363032000E000200B
:1015280038BD70B500287ED0044690F835304BB1F0
:10153800022384F835302268136823F0010313600E
:1015480000230BE080F8343004F010FBF0E7226849
:10155800191D02EB81020021516001330F2BF6D9CE
:101568002268936843F00403936021684A6822F074
:101578007F7222F47F3222F47C7222F001026368C7
:10158800A0680343A06A0343E06A0343E069034396
:10159800206A0343A0690343606A034313434B6013
:1015A8002046FFF7A8FF054608B1284670BD216808
:1015B8000A6822F0FE02E368206903436069034376
:1015C800206B034313430B602268136843F0010345
:1015D8001360FEF7BDFF064623689B6813F0010FF2
:1015E80009D1FEF7B5FF801BB0F57A7FF4D908233F
:1015F800A3630325D9E7FEF7ABFF064623689B687C
:1016080013F0100F09D1FEF7A3FF801BB0F57A7F06
:10161800F4D91023A3630325C7E70023A363012399
:1016280084F83530C1E70125BFE70000024A136896
:1016380043F480731360704700700040024B1868D1
:1016480000F4C060704700BF00700040B0F5007F34
:101658000FD01F4B1B6803F4C063B3F5806F34D001
:101668001B4A136823F4C06343F4806313600020AB
:101678007047174B1B6803F4C063B3F5007F22D093
:10168800134A136823F4C06343F400731360114BC7
:101698001A68322303FB02F30F4AA2FB03239B0CB5
:1016A800013300E0013B0A4A526912F4806F01D00D
:1016B800002BF7D1064B5B6913F4806F01D1002032
:1016C800704703207047002070470020704700BF14
:1016D800007000402800002083DE1B43024A536844
:1016E80043F4806353607047007000402DE9F04177
:1016F80005460F4616469846069C2B689B683B4253
:1017080014BF01230023B34213D0B4F1FF3FF4D038
:10171800FEF71EFFA0EB0800A04201D8002CECD178
:10172800042385F83930EB6B43F00103EB630120A8
:1017380000E00020BDE8F0810164704730B583B057
:101748000446FEF705FF002C52D0054694F83830C1
:10175800DBB2012B4ED0012384F8383094F83930AD
:10176800002B3AD021680B6823F47063A268013A11
:1017780043EA02230B60236C00932B4600222021AE
:101788002046FFF7B3FF024608BB2068036823F032
:101798007F4323F010036568E16841EA05610B4364
:1017A800036020684168144B0B402569616941EA70
:1017B8000541A56929430B43436021680B6843F041
:1017C80001030B600023E363012384F8393000230D
:1017D80084F83830104603B030BD84F838302046DD
:1017E80004F038FA41F288312046FFF7A5FFB9E73F
:1017F8000122EFE70222EDE7FEF8E0FF30B583B003
:101808000546204B9B6D13F0805F0BD0FFF716FF4A
:10181800B0F5007F17D0802D1FD82DD0702D2DD07A
:1018280000211BE0174CA36D43F08053A365A36D03
:1018380003F080530193019BFFF700FFA36D23F092
:101848008053A365E4E7802D03D9A02D03D9022195
:1018580004E0002102E0012100E003210A4A1368A4
:1018680023F007030B431360136803F007038B424D
:1018780006D0012003B030BD0221EFE70121EDE7DA
:101888000020F7E70010024000200240284A936831
:10189800D26802F0030213F00C030AD00C2B06D016
:1018A800042B1FD0082B20D00020024610E0012A6C
:1018B800F6D11F4A126812F0080F0CD11C4AD2F850
:1018C8009420C2F303221B4951F8222043B100207F
:1018D8000C2B0DD07047164A1268C2F30312F2E7B8
:1018E8001046F5E714480022F2E714480022EFE713
:1018F8000F4BDB6803F00303022B15D0032B15D025
:101908000B4BD868C0F302100130D968C1F3062127
:1019180002FB01F2B2FBF0F2D868C0F3416001307B
:101928004000B2FBF0F0D5E7034AE9E7034AE7E7EE
:1019380000100240786400080024F40000127A00C5
:10194800002800F0D182F0B583B00446AD4B9D6805
:1019580005F00C05DE6806F00306036813F0100FA7
:101968005ED0E5B10C2D18D0A369002B00F0B8802B
:10197800A44A136843F001031360FEF7E9FD074624
:10198800A04B1B6813F0020F40F09780FEF7E0FDB4
:10199800C01B0228F4D90323B9E2012EE4D1994BE4
:1019A8001B6813F0020F03D0A369002B00F09F827D
:1019B800206A944B1B6813F0080F5ED0914B1B688C
:1019C80003F0F00398425FD9FFF718FF002840F0B2
:1019D80097828C4B1A6842F008021A601A6822F043
:1019E800F002216A0A431A605A6822F47F42E169C8
:1019F80042EA01225A60FFF749FF824B9B68C3F312
:101A08000313814AD35C03F01F03D8407F4B18604F
:101A18007F4B1868FEF754FD0346002840F0778294
:101A2800236813F0010F7AD0082D6FD00C2D6BD0DE
:101A38006368B3F5803F00F09180B3F5A02F00F004
:101A48009380704B1A6822F480321A601A6822F464
:101A580080221A606368002B00F09380FEF778FDFF
:101A68000746684B1B6813F4003F58D1FEF770FD1A
:101A7800C01B6428F5D9032349E2624BD3F894309C
:101A88001B0903F0F0039DE75E4B1A6842F0080259
:101A98001A601A6822F0F002216A0A431A605A682A
:101AA80022F47F42E16942EA01225A60206AFFF784
:101AB800A5FE00289FD0012329E2524B1A6842F064
:101AC80008021A601A6822F0F002216A0A431A60B2
:101AD8005A6822F47F42E16942EA01225A609FE78C
:101AE800484A136823F001031360FEF731FD0746E7
:101AF800444B1B6813F0020F92D0FEF729FDC01B60
:101B08000228F5D9032302E2032E91D13D4B1B682D
:101B180013F4003F03D06368002B00F0F3812368BF
:101B280013F0020F4FD0042D3CD00C2D38D0E368B1
:101B3800002B78D0334A136843F480731360FEF7A0
:101B480007FD06462F4B1B6813F4806F62D1FEF722
:101B5800FFFC801B0228F5D90323D8E1294A136822
:101B680043F48033136075E703F18043A3F53C33F6
:101B78001A6842F480221A601A6842F480321A60A5
:101B880068E7FEF7E5FC07461E4B1B6813F4003FA9
:101B9800C5D0FEF7DDFCC01B6428F5D90323B6E1E8
:101BA800022EC4D1174B1B6813F4806F03D0E3686F
:101BB800002B00F0A981134A536823F0F8532169D8
:101BC80043EA01635360236813F0080F56D0636932
:101BD800002B3CD00B4AD2F8943043F00103C2F8F2
:101BE8009430FEF7B5FC0646064BD3F8943013F054
:101BF800020F43D1FEF7ACFC801B0228F4D9032363
:101C080085E100BF00100240A864000828000020F9
:101C180004000020B74A536823F0F853216943EAC7
:101C280001635360CFE7B34A136823F480731360EA
:101C3800FEF78EFC0646AF4B1B6813F4806FC2D0CC
:101C4800FEF786FC801B0228F5D903235FE1A94A29
:101C5800D2F8943023F00103C2F89430FEF778FCF0
:101C68000646A44BD3F8943013F0020F06D0FEF7C3
:101C78006FFC801B0228F4D9032348E1236813F082
:101C8800040F7AD09B4B9B6D13F0805F0BD1994B5F
:101C98009A6D42F080529A659B6D03F080530193D0
:101CA800019B012600E00026934B1B6813F4807FFC
:101CB80026D0A368012B37D0052B3DD08D4BD3F808
:101CC800902022F00102C3F89020D3F8902022F04F
:101CD8000402C3F89020A368002B3BD0FEF738FC21
:101CE8000746844BD3F8903013F0020F44D1FEF727
:101CF8002FFCC01B41F288339842F2D9032306E136
:101D08007D4A136843F480731360FEF721FC07468D
:101D1800794B1B6813F4807FCBD1FEF719FCC01BED
:101D28000228F5D90323F2E0724AD2F8903043F042
:101D38000103C2F89030CEE76E4BD3F8902042F002
:101D48000402C3F89020D3F8902042F00102C3F8AF
:101D58009020C0E7FEF7FCFB0746664BD3F89030AF
:101D680013F0020F08D0FEF7F3FBC01B41F28833D3
:101D78009842F2D90323CAE05EBBA36A002B00F0A5
:101D8800C5800C2D76D0022B29D05A4B1A6822F028
:101D980080721A601B6813F0205F04D1554AD3681B
:101DA80023F00303D360534AD36823F0887323F4E2
:101DB8008033D360FEF7CCFB04464E4B1B6813F010
:101DC800007F55D0FEF7C4FB001B0228F5D903237A
:101DD8009DE0484A936D23F080539365CDE7454ACB
:101DE800136823F080731360FEF7B2FB0546414B7E
:101DF8001B6813F0007F06D0FEF7AAFB401B0228E1
:101E0800F5D9032383E03B4AD3683C491940E36A88
:101E1800206B013843EA0013606B43EA0023E06B50
:101E28004008013843EA4053206C4008013843EA2F
:101E38004063A06B000943EA40430B43D360136837
:101E480043F080731360D36843F08073D360FEF768
:101E58007FFB0446274B1B6813F0007F06D1FEF773
:101E680077FB001B0228F5D9032350E000234EE03E
:101E780000234CE0012B4DD01E4BDB6803F003011F
:101E8800E26A914201D0012341E003F07002216B24
:101E98000139B2EB011F01D0012338E003F4FE42FF
:101EA800616BB2EB012F01D0012330E003F4003164
:101EB800A26B073A18BF0122914201D0012326E004
:101EC80003F4C001E26B5208013AB1EB425F01D062
:101ED80001231CE003F0C063226C5208013AB3EB03
:101EE800426F19D0012312E00123184670470123DD
:101EF8000DE000BF00100240007000408C809DF98A
:101F0800012304E0012302E0012300E00023184636
:101F180003B0F0BD0123FAE70023F8E7002800F03A
:101F28009B8070B504464E4B1B6803F007038B4239
:101F38000CD24B4A136823F007030B431360136852
:101F480003F007038B4201D0012070BD0D462368C2
:101F580013F0010F39D06368032B09D0022B26D068
:101F680063BB404A126812F0020F06D10120ECE769
:101F78003C4A126812F0007F70D03A498A6822F011
:101F8800030213438B60FEF7E3FA0646354B9B6862
:101F980003F00C036268B3EB820F16D0FEF7D8FA91
:101FA800801B41F288339842F0D90320CDE72D4AAF
:101FB800126812F4003FE0D10120C6E7294A1268EE
:101FC80012F4806FD9D10120BFE7236813F0020F04
:101FD80006D0244A936823F0F003A1680B4393606A
:101FE8001F4B1B6803F00703AB420CD91C4A13684C
:101FF80023F007032B431360136803F00703AB4276
:1020080001D00120A1E7236813F0040F06D0154A78
:10201800936823F4E063E1680B439360236813F04B
:10202800080F07D00F4A936823F46053216943EAE5
:10203800C1039360FFF72AFC0A4B9B68C3F30313A1
:10204800094AD35C03F01F03D840084B1860084BBB
:102058001868FEF735FA78E701207047012074E721
:102068000020024000100240A86400082800002058
:1020780004000020014B1868704700BF28000020AA
:1020880008B5FFF7F7FF054B9B68C3F30223044A23
:10209800D35C03F01F03D84008BD00BF0010024006
:1020A800B864000808B5FFF7E5FF054B9B68C3F364
:1020B800C223044AD35C03F01F03D84008BD00BF05
:1020C80000100240B8640008B0F5006F24D0B0F5E5
:1020D800805F2BD00020B0F5000F31D0B0F1007F29
:1020E8002ED0002849D1384B1B6913F4803F6AD0A1
:1020F800354BD868C0F302100130B1FBF0F1186914
:10210800C0F306201B6913F4003F34D1072300FBFA
:1021180001F0B0FBF3F070472B4BD3F8880000F4C4
:102128004000B0F5400FD6D128487047264BD3F869
:10213800880000F04070B0F1407FCCD12348704750
:10214800214BDB6813F4803F3AD01F4BD868C0F3AB
:1021580002100130B1FBF0F1D868C0F30620DB684B
:1021680013F4003F05D1072300FB01F0B0FBF3F0A7
:1021780070471123F8E71123C9E7B0F5800F04D0A1
:10218800B0F1807F01D0002070470F4B5B6913F4DA
:10219800803F17D00C4BD868C0F302100130B1FB58
:1021A800F0F15869C0F306205B6913F4003F05D0CD
:1021B800112300FB01F0B0FBF3F070470723F8E7A9
:1021C80000207047002070470010024068FF1F0081
:1021D800F8B55A4BDB6813F0030F18D0574BDB6880
:1021E80003F003030268934202D001252846F8BD94
:1021F800002A00F0A080514BDB68C3F302130133BF
:102208004268934201D00125F0E700251AE00368EF
:10221800022B59D0032B5ED0012B01D001250FE0F2
:10222800464A126812F0020F61D0444DEA6822F063
:1022380073024468013C43EA04131343EB6000252E
:10224800002DD3D10F4604463C4A136823F080631F
:102258001360FEF77DF90646384B1B6813F0006FD4
:1022680005D0FEF775F9801B0228F5D90325002D46
:10227800BCD1002F3DD131490B6923F41F3323F41E
:102288004073A068E2681209520442EA002213432C
:102298000B612A4A136843F080631360FEF758F90C
:1022A8000646264B1B6813F0006F05D1FEF750F960
:1022B800801B0228F5D90325002D97D11F4A1369E1
:1022C800A1690B43136191E71C4A126812F4806FED
:1022D800ABD10125B4E7194A126812F4003FA4D122
:1022E800164A126812F4802F9FD10125A8E701250C
:1022F800A6E7012F0FD01148026922F0C06222F42C
:10230800FE42A16863695B08013B5B0643EA01235F
:1023180013430361BDE70948026922F4C00222F4AD
:10232800FE42A16823695B08013B5B0543EA012380
:1023380013430361ADE7012558E700BF00100240D1
:10234800F8B5514BDB6813F0030F18D04E4BDB6820
:1023580003F003030268934202D001252846F8BD22
:10236800002A00F08E80484BDB68C3F30213013368
:102378004268934201D00125F0E700251AE003687E
:10238800022B59D0032B5ED0012B01D001250FE081
:102398003D4A126812F0020F61D03B4DEA6822F004
:1023A80073024468013C43EA04131343EB600025BD
:1023B800002DD3D10F460446334A136823F08053C7
:1023C8001360FEF7C5F806462F4B1B6813F0005F35
:1023D80005D0FEF7BDF8801B0228F5D90325002D8E
:1023E800BCD1002F3DD128494B6923F41F3323F476
:1023F8004073A068E2681209520442EA00221343BB
:102408004B61214A136843F080531360FEF7A0F82C
:1024180006461D4B1B6813F0005F05D1FEF798F8C0
:10242800801B0228F5D90325002D97D1164A536938
:1024380061690B43536191E7134A126812F4806F84
:10244800ABD10125B4E7104A126812F4003FA4D1B9
:102458000D4A126812F4802F9FD10125A8E70125A3
:10246800A6E70948426922F0C06222F4FE42A16848
:1024780023695B08013B5B0643EA0123134343617D
:10248800BFE701256AE700BF001002402DE9F041CF
:1024980082B00446036813F4006F2FD0436EB3F57F
:1024A800800F25D008D9B3F5000F10D0B3F5400F31
:1024B80040F09980002610E0002B40F09480002125
:1024C8000430FFF785FE06463EB1374618E05E4AFF
:1024D800D36843F48033D36000265B4AD2F888304F
:1024E80023F44003616E0B43C2F88830002707E0ED
:1024F80000212030FFF724FF0646E5E700273E4687
:10250800236813F4805F15D0A36EB3F1807F7AD06F
:102518006CD9B3F1007F70D0B3F1407F7AD1002E2F
:102528007BD1494AD2F8883023F04073A16E0B431F
:10253800C2F88830236813F4003F00F08E80424BC5
:102548009B6D13F0805F6AD13F4B9A6D42F08052C9
:102558009A659B6D03F080530193019B4FF001082E
:102568003A4A136843F480731360FDF7F1FF054698
:10257800364B1B6813F4807F05D1FDF7E9FF401B3C
:102588000228F5D90326002E62D12F4BD3F89030BC
:1025980013F4407316D0D4F884209A4212D02A4AF1
:1025A800D2F8903023F44073D2F8901041F480317F
:1025B800C2F89010D2F8901021F48031C2F890102F
:1025C800C2F8903013F0010F2CD1002E40F0438157
:1025D8001D4AD2F8903023F44073D4F884100B438A
:1025E800C2F8903035E001273E4689E793B90021CB
:1025F800201DFFF7EDFD064691E7134AD36843F423
:102608008033D3608BE7002104F12000FFF798FEA8
:10261800064684E701273E468CE737468AE74FF0AF
:1026280000089DE7FDF794FF0546074BD3F8903067
:1026380013F0020FC9D1FDF78BFF401B41F288331D
:102648009842F2D90326C0E700100240007000400B
:102658003746B8F1000F40F00081236813F0010FEE
:1026680008D09D4AD2F8883023F00303A16B0B43AE
:10267800C2F88830236813F0020F08D0964AD2F8BF
:10268800883023F00C03E16B0B43C2F888302368D1
:1026980013F0040F08D0904AD2F8883023F03003A2
:1026A800216C0B43C2F88830236813F0080F08D058
:1026B800894AD2F8883023F0C003616C0B43C2F812
:1026C8008830236813F0100F08D0834AD2F8883076
:1026D80023F44073A16C0B43C2F88830236813F0CD
:1026E800200F08D07C4AD2F8883023F44063E16C8C
:1026F8000B43C2F88830236813F4007F08D0764A69
:10270800D2F8883023F44023E16D0B43C2F88830B7
:10271800236813F4806F08D06F4AD2F8883023F406
:102728004013216E0B43C2F88830236813F0400F22
:1027380008D0694AD2F8883023F44053216D0B43FE
:10274800C2F88830236813F0800F08D0624AD2F8A4
:10275800883023F44043616D0B43C2F88830236806
:1027680013F4807F08D05C4AD2F8883023F44033D1
:10277800A16D0B43C2F88830236813F4005F0FD0B3
:10278800554AD2F8883023F04063E16E0B43C2F813
:102798008830E36EB3F1006F65D0B3F1806F67D016
:1027A800236813F4002F0FD04B4AD2F8883023F057
:1027B8004063216F0B43C2F88830236FB3F1006F79
:1027C8005ED0B3F1806F60D0236813F4802F0FD0F0
:1027D800414AD2F8883023F04063616F0B43C2F856
:1027E8008830636FB3F1006F57D0B3F1806F59D061
:1027F800236813F4804F0FD0374AD2F8883023F07B
:102808004053A16F0B43C2F88830A36FB3F1805FC8
:1028180050D0B3F1005F55D0236813F4004F08D0AF
:102828002D4AD2F8883023F08043E16F0B43C2F879
:102838008830236813F4803F09D0274AD2F88830BB
:1028480023F00043D4F880100B43C2F88830384690
:1028580002B0BDE8F0813746FBE61F4A936D23F0CE
:1028680080539365F9E6D36843F48013D36097E700
:102878000121201DFFF7ACFC002891D007468FE707
:10288800D36843F48013D3609EE70121201DFFF72E
:102898009FFC002898D0074696E7D36843F4801336
:1028A800D360A5E70121201DFFF792FC00289FD0E7
:1028B80007469DE70221201DFFF78AFC0028ABD0C0
:1028C8000746A9E7022104F12000FFF739FD002897
:1028D800A2D00746A0E700BF0010024008B5B0F537
:1028E800003F38D0BB4BDB6803F00303022B74D0E6
:1028F800032B79D0012B58D00021B0F5007F00F0D0
:10290800E38200F2CA80102800F0098200F28A806F
:10291800022800F09E8174D9042800F0C881082894
:1029280040F01881AB4BD3F8883003F0C003402B3C
:1029380000F0EA8140F2E281802B00F0E881C02BB0
:1029480040F03483A34BD3F8903013F0020F40F0DB
:10295800318300200EE09F4BD3F8903003F440738E
:10296800B3F5007F10D0B3F5407F16D0B3F5807F64
:1029780001D0002008BD974BD3F8903013F0020F18
:1029880040F0ED820020F5E7924BD3F8943013F035
:10299800020F40F0E7820020ECE78E4B1B6813F42F
:1029A800003F40F0E2820020E4E78A4B1B6813F006
:1029B800020F20D0874B1B6813F0080F07D0854BF8
:1029C8001B68C3F30313844A52F8231095E7814B1D
:1029D800D3F89430C3F30323F5E77E4B1B6813F455
:1029E800806F0AD07D4988E77A4B1B6813F4003F53
:1029F80005D07B4981E700217FE700217DE70021A1
:102A08007BE7012840F0A680724BD3F8883003F0AA
:102A18000303032B00F2B582DFE813F0040107017A
:102A28000A011201402800F0078218D9802800F016
:102A38001F82B0F5807F40F08D80664BD3F88830D8
:102A480003F44033B3F5803F00F03182B3F5003F23
:102A580000F03082002B00F0278200208AE720282F
:102A680078D15C4BD3F8883003F44063B3F5806FBA
:102A780000F0858140F27D81B3F5006F00F082811E
:102A8800B3F5406F40F0A082524BD3F8903013F06A
:102A9800020F40F09D8200206CE7B0F5804F00F0F7
:102AA80079813DD8B0F5006F56D007D9B0F5805F71
:102AB80023D14FF48050FFF707FB5BE7B0F5806F39
:102AC80048D1444BD3F8883003F44013B3F5801F42
:102AD80000F02C8240F22582B3F5001F00F02E8210
:102AE800B3F5401F40F08B823A4BD3F8903013F087
:102AF800020F40F08B8200203CE7B0F5005F29D13F
:102B0800344BD3F8883003F04063B3F1006F41D001
:102B1800B3F1406F25D0B3F1806F63D0002029E76F
:102B2800B0F5803F00F07D810ED8B0F5004F11D18F
:102B3800284BD3F8883013F0804300F00682002B2E
:102B480040F00682002015E7B0F5802FD8D0B0F508
:102B5800002FD5D000200DE74FF40060FFF7B4FA3E
:102B680008E71C4B1B6813F0020F00F00082194B9A
:102B78001B6813F0080F07D0164B1B68C3F3031329
:102B8800154A52F82300F5E6124BD3F89430C3F3F4
:102B98000323F5E70F4B1B6813F0007F00F0E98172
:102BA8000C4BDB6813F4801F00F0E581094AD068FC
:102BB800C0F3062000FB01F0D368C3F3021301330E
:102BC800B0FBF3F0D368C3F3415301335B00B0FBB0
:102BD800F3F0CFE600100240786400080024F40007
:102BE80000127A00B74B1B6813F0006F00F0C58124
:102BF800B44B1B6913F4801F00F0C181B14A1069FE
:102C0800C0F3062000FB01F0D368C3F302130133BD
:102C1800B0FBF3F01369C3F3415301335B00B0FB1E
:102C2800F3F0A7E6FFF73EFAA4E6FEF72FFEA1E6CB
:102C3800A44B1B6813F4806F40F0A581002099E62F
:102C4800A04BD3F8903013F0020F40F09E81002083
:102C580090E69C4BD3F8883003F00C030C2B00F261
:102C68009781DFE813F00D0095019501950110009B
:102C780095019501950113009501950195011B009A
:102C8800FFF7FEF976E6FEF701FE73E68D4B1B684B
:102C980013F4806F40F07E8100206BE6894BD3F8F7
:102CA800903013F0020F40F07781002062E6854BE8
:102CB800D3F8883003F03003102B14D00DD9202B13
:102CC80014D0302B40F06B817E4BD3F8903013F04A
:102CD800020F40F0688100204CE6002B40F05F8135
:102CE800FFF7CEF946E6FEF7D1FD43E6754B1B68C4
:102CF80013F4806F40F0558100203BE6002B40F034
:102D08005581FFF7BDF935E6FEF7C0FD32E66D4B9C
:102D18001B6813F4806F40F04B8100202AE6694B52
:102D2800D3F8883003F44073B3F5807F16D00FD9F9
:102D3800B3F5007F15D0B3F5407F40F03E81614B7D
:102D4800D3F8903013F0020F40F03B81002011E6D9
:102D5800002B40F03281FFF793F90BE6FEF796FD62
:102D680008E6584B1B6813F4806F40F02881002058
:102D780000E6002B40F02881FFF782F9FAE5FEF71C
:102D880085FDF7E54F4B1B6813F4806F40F01E81FB
:102D98000020EFE54B4BD3F8883003F04053B3F1F4
:102DA800005F24D0B3F1405F04D0B3F1805F04D05A
:102DB8000020DFE5FEF76AFDDCE5424B1B6913F0F6
:102DC800807F00F008813F4A1069C0F3062000FBAD
:102DD80001F0D368C3F302130133B0FBF3F01369B6
:102DE800C3F3416301335B00B0FBF3F0C2E5354B3D
:102DF8005B6913F0807F00F0F080324A5069C0F3BD
:102E0800062000FB01F0D368C3F302130133B0FBC3
:102E1800F3F05369C3F3416301335B00B0FBF3F094
:102E2800A8E5284BD3F88830002B02DBFFF73AF9E6
:102E3800A0E5FEF72BFD9DE5224BD3F8883003F47F
:102E48004053B3F5805F08D0B3F5005F08D00BB1ED
:102E580000208FE5FFF714F98CE5FEF717FD89E5EB
:102E6800184B1B6813F4806F40F0B980002081E58F
:102E7800144BD3F8883003F44043B3F5804F08D09F
:102E8800B3F5004F08D00BB1002073E5FFF7F8F851
:102E980070E5FEF7FBFC6DE50A4B1B6813F4806FC9
:102EA80040F09F80002065E5FFF7EAF862E5FEF74D
:102EB800EDFC5FE5034B1B6813F4806F40F09380D3
:102EC800002057E500100240534BD3F8883003F434
:102ED8004023B3F5802F15D00FD9B3F5002F19D0A3
:102EE800B3F5402F40F081804B4BD3F8903013F06E
:102EF800020F40F0818000203CE5002B75D1FFF7E0
:102F0800BFF837E5444BD3F8943013F0020F6ED175
:102F180000202FE5404B1B6813F4806F6AD1002016
:102F280028E5002B6BD1FFF7ABF823E53A4BD3F834
:102F3800943013F0020F64D100201BE5364B1B6858
:102F480013F4806F60D1002014E5FFF799F811E5BC
:102F5800314B1B6813F4806F5BD100200AE54FF4F6
:102F6800004007E54FF4FA4004E52C4802E500204C
:102F780000E50020FEE40020FCE40020FAE4002044
:102F8800F8E40020F6E42648F4E44FF40040F1E4C5
:102F98000020EFE42248EDE44FF40040EAE400208A
:102FA800E8E41F48E6E44FF40040E3E40020E1E4ED
:102FB8001B48DFE44FF40040DCE40020DAE4184862
:102FC800D8E44FF40040D5E40020D3E41448D1E419
:102FD8004FF40040CEE40020CCE40020CAE41048BE
:102FE800C8E40F48C6E40E48C4E40020C2E44FF425
:102FF800FA40BFE40A48BDE44FF40040BAE40020B8
:10300800B8E44FF4FA40B5E40548B3E44FF400409F
:10301800B0E40348AEE400BF0010024090D00300C3
:103028000024F400024A136843F004031360704755
:10303800001002400E4B1B680E4AA2FB03231B0B19
:103048009B0001680A6822F480320A603BB1013BA8
:103058000268126812F4803FF8D100207047D0F857
:10306800803043F04003C0F880300320704700BF31
:10307800280000201BECCB95F8B5002800F0D6807E
:10308800044690F87D300BB32046FFF7D3FF054682
:10309800002840F0CD80022384F87D30E368012BBE
:1030A8001BD0022B17D00022A368022B17D0032BAA
:1030B80018D0012B1BD0002623685E498B4219D0FB
:1030C80020318B4216D05C4B1A6015E080F87C30BA
:1030D80002F062FED8E72022E6E71022E4E74FF488
:1030E8000066E9E742F001024FF40066E4E74FF4B6
:1030F8008066E1E7514B1A60E3691BB323684D4AC8
:10310800934207D02032934204D04FF48050FFF707
:10311800E5FB03E04FF40060FFF7E0FB00EB800005
:103128004100E3695B02B1FBF3F1454BA3FB0123CB
:10313800DB08236203EB830042008A1A082A01D9BC
:1031480001332362636833B1022B04D0E36B012B94
:1031580069D0002704E0E36B012B62D04FF40077BD
:1031680021680B68374A1A400A6021680A68636850
:10317800206B0343606B0343A06B03433B43334320
:10318800606A03432069034360690343206A43EA92
:10319800005313430B602268536823F4604323F001
:1031A8000F03536021684A68A369A06A0343E06A71
:1031B800034313434B6022689168234B0B40936091
:1031C80020688268236C013B216D0B43A16C0B4383
:1031D800E16C0B43616C013943EA012313438360BB
:1031E8002268D36823F47D6323F00F031B041B0CB0
:1031F800D3602068C268636DA16D0B43216E43EAFA
:103208000143E16D013943EA01231343C3600023FD
:10321800C4F88030012284F87D2084F87C30284668
:10322800F8BD00279CE74FF4007799E70125F6E7FA
:103238000125F4E7045401400058014000540140BE
:10324800CDCCCCCC10C005FF0080F8FFF8B5054602
:103258000F4616461C462B689B6837EA03030CBFCB
:1032680001230023B34237D0B4F1FF3FF3D0FDF779
:103278006FF9069BC01AA04201D2002CEBD12A6834
:10328800536823F0E00353606B68B3F5827F0BD07B
:10329800AB6AB3F5005F14D0012385F85D300023D5
:1032A80085F85C30032018E0AB68B3F5004F02D016
:1032B800B3F5806FECD12A68136823F040031360DC
:1032C800E6E72A68136823F4005313602A68136832
:1032D80043F400531360DFE70020F8BDF8B5074654
:1032E8000C4615461E4602E0B6F1FF3F0BD13A6880
:1032F80093682340AB423BD0B4F5C06FF4D1002DA6
:10330800F2D1137BF0E7FDF723F9069BC01AB04210
:1033180001D2002EEBD13A68536823F0E0035360E2
:103328007B68B3F5827F0BD0BB6AB3F5005F14D01E
:10333800012387F85D30002387F85C30032018E00C
:10334800BB68B3F5004F02D0B3F5806FECD13A6893
:10335800136823F040031360E6E73A68136823F420
:10336800005313603A68136843F400531360DFE7AF
:103378000020F8BD70B582B004460D46164600928E
:103388000B4600224FF4C051FFF7A8FFB8B90096CA
:103398002B46002280212046FFF758FFB8B9009637
:1033A8002B4600224FF4C0612046FFF797FF0346E3
:1033B80050B1236E43F020032366032304E0236EF9
:1033C80043F0200323660323184602B070BD236E22
:1033D80043F0200323660323F6E7002853D010B5F3
:1033E80004460023836290F85D30002B40D002230E
:1033F80084F85D302268136823F040031360E368A3
:10340800B3F5E06F39D90022B3F5706F04D0B3F586
:10341800E06F01D00021A162216B21B9B3F5E06F03
:103428002ED9022323636368A1680B4321690B43E8
:1034380061690B43A16901F400710B43E1690B4316
:10344800216A0B43A06A216803430B60638B03F076
:103458000403616A0B43616B0B43E1680B4321680A
:1034680013434B6000202066012384F85D3010BDB3
:1034780080F85C3002F026FCB9E74FF48052C3E7CD
:1034880001232363CFE7012070472DE9F04182B083
:1034980090F85C40012C00F0E4801E4615468846F2
:1034A8000446012380F85C30FDF752F8074694F88B
:1034B8005D20D2B2012A09D00220012384F85D30B0
:1034C800002384F85C3002B0BDE8F081B8F1000F49
:1034D80000F0B980002D00F0B880032384F85D3037
:1034E80000232366C4F83880A587E5872364A4F8F9
:1034F8004430A4F846302365E364A368B3F5004F6D
:103508001CD023681A6812F0400F03D11A6842F0E1
:1035180040021A60E368B3F5E06F33D963680BB112
:10352800012D1BD1A26B23681288DA60A36B0233CA
:10353800A363E38F013B9BB2E3870FE02268136824
:1035480043F480431360DCE7FDF702F8C01BB04288
:1035580002D3B6F1FF3F7AD1002E7AD0E38F9BB227
:10356800002B5BD023689A6812F0020FECD0A26B94
:103578001288DA60A36B0233A363E38F013B9BB22B
:10358800E387EBE763680BB1012D30D1E38F9BB282
:10359800012B0BD9A26B23681288DA60A36B023364
:1035A800A363E38F023B9BB2E38720E0A26B23680F
:1035B80012781A73A36B0133A363E38F013B9BB2A9
:1035C800E38714E0A36B1B781373A36B0133A36326
:1035D800E38F013B9BB2E38709E0FCF7B9FFC01B0F
:1035E800B04202D3B6F1FF3F35D1002E35D0E38F7C
:1035F8009BB29BB12268936813F0020FEDD0E38F62
:103608009BB2012BDED9A36B1B88D360A36B02335B
:10361800A363E38F023B9BB2E387E8E73A46314670
:103628002046FFF7A7FE08B120232366A36833B915
:1036380001932368DA6801929B680193019B236ECA
:103648006BB9002039E7012037E7012035E703206F
:1036580033E7032031E703202FE703202DE701207C
:103668002BE702202FE72DE9F843DDF8208090F8BA
:103678005C40012C00F05C811D4617460E4604464E
:10368800012380F85C30FCF763FF814694F85D0005
:10369800C0B26368012814D0B3F5827F09D0022331
:1036A800012284F85D20002284F85C201846BDE8D9
:1036B800F883A368002B40F02D81042801D0022351
:1036C800EEE7002E00F02881002F00F02781002D62
:1036D80000F0268194F85D30DBB2042B02D005237C
:1036E80084F85D30002323662764A4F84650A4F8C4
:1036F8004450A663E587A587E3642365E368B3F5CB
:10370800E06F01D8012D22D92268536823F4805331
:10371800536023681A6812F0400F03D11A6842F008
:1037280040021A60E368B3F5E06F56D963680BB1DD
:10373800012D0AD1A26B23681288DA60A36B0233C9
:10374800A363E38F013B9BB2E387012525E0226851
:10375800536843F480535360DBE723689A6812F098
:10376800010F10D0B4F8462092B262B1DA68236C27
:103778001A80236C02332364B4F84630013B9BB2B1
:10378800A4F846300125FCF7E3FEA0EB090040450C
:1037980003D3B8F1FF3F40F0C580E38F9BB22BB94C
:1037A800B4F846309BB2002B00F0A78023689A68D3
:1037B80012F0020FD1D0E28F92B2002ACDD0002DA4
:1037C800CBD0A26B1288DA60A36B0233A363E38FBA
:1037D800013B9BB2E3870025BFE763680BB1012D6E
:1037E8000ED1E38F9BB2012B0CD9A26B23681288F0
:1037F800DA60A36B0233A363E38F023B9BB2E387D8
:10380800012547E0A26B236812781A73A36B013372
:10381800A363E38F013B9BB2E387F1E7E28F92B2A8
:10382800012A0BD9A26B1288DA60A36B0233A36357
:10383800E38F023B9BB2E38700253CE0A26B127842
:103848001A73A36B0133A363E38F013B9BB2E38736
:10385800002530E02268536843F480535360012503
:103868000CE0226C1B7B1370236C01332364B4F8C7
:103878004630013B9BB2A4F846300125FCF768FEB0
:10388800A0EB0900404502D3B8F1FF3F4CD1B8F195
:10389800000F4BD0E38F9BB21BB9B4F846309BB2F4
:1038A8005BB323689A6812F0020F04D0E28F92B2D9
:1038B8000AB1002DB2D123689A6812F0010FDDD049
:1038C800B4F8462092B2002AD8D0B4F8462092B272
:1038D800012AC6D9DA68236C1A80236C0233236460
:1038E800B4F84630023B9BB2A4F84630B4F84630F0
:1038F8009BB2012BAED90125C0E74A464146204676
:10390800FFF738FD034600283FF4CAAE202323669C
:103918000123C5E60223C3E60123C1E60123BFE66E
:103928000123BDE60323BBE60323B9E60323B7E679
:103938000223BBE62DE9F048044601688368026962
:10394800134342691343C26913430868A24A0240F9
:1039580013430B602268536823F44053E1680B4318
:103968005360A16922689D4B9A4201D0236A19438A
:10397800936823F430630B4393602368984A934217
:1039880027D0984A934238D0974A93424ED0974AC4
:10399800934261D0964A934274D0904A934200F081
:1039A8008A8010258D4A934200F0AA80E369B3F516
:1039B800004F00F03581082D00F2BF81DFE815F0D7
:1039C8007F0195019F01BD01AA01BD01BD01BD0196
:1039D800B40102F55842D2F8882002F00302032A03
:1039E80009D8DFE802F0020481060125DAE7042598
:1039F800D8E70825D6E71025D4E702F5E632D2F84D
:103A0800882002F00C020C2A0ED8DFE802F0070D1D
:103A18000D0D090D0D0D6F0D0D0D0B000025C1E7E6
:103A28000425BFE70825BDE71025BBE702F5E4320A
:103A3800D2F8882002F03002102A09D005D9202AAD
:103A480056D0302A06D10825ACE71AB90025A9E7CF
:103A58000425A7E71025A5E702F5E232D2F8882069
:103A680002F0C002402A09D005D9802A42D0C02AD3
:103A780006D1082596E71AB9002593E7042591E7AA
:103A880010258FE702F5E032D2F8882002F4407260
:103A9800B2F5807F0BD007D9B2F5007F2CD0B2F5F4
:103AA800407F06D108257DE71AB900257AE7042565
:103AB80078E7102576E702F5C832D2F8882002F4B4
:103AC8004062B2F5806F0BD007D9B2F5006F15D000
:103AD800B2F5406F06D1082564E71AB9002561E7F9
:103AE80004255FE710255DE702255BE7022559E716
:103AF800022557E7022555E7022553E7022551E736
:103B0800082D00F21D81DFE815F00C001B011400E0
:103B18001B0111001B011B011B0109004FF4004090
:103B280008E0FEF7ADFA28B90020D9E0FDF7AEFEAF
:103B3800F9E73048626802EB4203834200F20281EF
:103B4800B0EB023F00F20081082D66D8DFE805F0EF
:103B580005652065306565655800FEF791FA002512
:103B6800070E0602626850082B4616EB000B47F159
:103B7800000C58466146FCF723FB03462846A3F58C
:103B880040711D4A914200F2E1802268D360A7E0AB
:103B9800560800252B46DFF864B04FF0000C1BEBED
:103BA80006004CF10001FCF70BFB03462846E6E74C
:103BB800FDF76CFE0025070E0602626850082B46CA
:103BC80016EB000B47F1000C58466146FCF7F8FA73
:103BD80003462846D3E700BFF369FFEF00800040A3
:103BE800003801400044004000480040004C0040BC
:103BF800005000400024F400FFFC0F00000024F4F3
:103C08005008002700252B4610F5000047F1000159
:103C1800FCF7D6FA03462846B1E701200023AEE7B1
:103C2800082D49D8DFE805F0051E294834484848DA
:103C38003F00FEF725FA6268530803EB4003B3FB25
:103C4800F2F39BB20020A3F110014FF6EF729142FC
:103C58007ED89AB222F00F02C3F3420313432268BC
:103C6800D3603DE0FEF71EFA6268530803EB400399
:103C7800B3FBF2F39BB20020E5E76268530803F157
:103C8800F47303F59043B3FBF2F39BB20020DAE739
:103C9800FDF7FCFD6268530803EB4003B3FBF2F346
:103CA8009BB20020CFE76268530803F58033B3FB6B
:103CB800F2F39BB20020C6E701200023C3E7FEF71A
:103CC800DFF9636800EB5302B2FBF3F292B2002013
:103CD800A2F110014FF6EF7399423BD82368DA60DE
:103CE800002222666266BDE8F088FEF7DBF96368A9
:103CF80000EB5302B2FBF3F292B20020E8E76368EC
:103D08005A0802F5740202F51052B2FBF3F292B2AD
:103D18000020DDE7FDF7BAFD636800EB5302B2FB54
:103D2800F3F292B20020D3E763685A0802F5004222
:103D3800B2FBF3F292B20020CAE701200022C7E7E3
:103D48000120CDE70120CBE70120C9E70120C7E723
:103D58000120C5E70120C3E7436A13F0010F06D02D
:103D68000268536823F40033816A0B435360436A43
:103D780013F0020F06D00268536823F48033C16A37
:103D88000B435360436A13F0040F06D0026853686C
:103D980023F48023016B0B435360436A13F0080F2D
:103DA80006D00268536823F40043416B0B43536009
:103DB800436A13F0100F06D00268936823F4805307
:103DC800816B0B439360436A13F0200F06D002689F
:103DD800936823F40053C16B0B439360436A13F059
:103DE800400F0AD00268536823F48013016C0B4318
:103DF8005360036CB3F5801F0BD0436A13F0800F38
:103E080006D00268536823F40023816C0B43536087
:103E180070470268536823F4C003416C0B43536036
:103E2800EBE72DE9F04105460F4616469846069CF5
:103E38002B68DB6937EA03030CBF01230023B34275
:103E48001CD1B4F1FF3FF3D0FCF782FBA0EB0800D4
:103E5800A04201D8002CEBD12A68136823F4D07350
:103E680013602A68936823F00103936020236B672B
:103E7800AB67002385F87030032000E00020BDE820
:103E8800F08130B583B004460023C367FCF760FBBC
:103E9800054623681B6813F0080F0CD123681B68BC
:103EA80013F0040F15D120236367A367002084F85B
:103EB800700003B030BD6FF07E43009303460022CC
:103EC8004FF400112046FFF7ACFF0028E6D003208E
:103ED800EFE76FF07E4300932B4600224FF48001FA
:103EE8002046FFF79EFF0028DDD00320E1E768B3F6
:103EF80010B50446436F03B324236367226813682D
:103F080023F0010313602046FFF714FD012813D0A6
:103F1800636ABBB92268536823F4904353602268EC
:103F2800936823F02A0393602268136843F001031F
:103F380013602046FFF7A5FF10BD80F8703001F030
:103F4800F5FED9E72046FFF707FFE3E701207047B2
:103F5800002301330C4A934211D80269002AF8DA87
:103F6800036943F00103036100230133064A9342C6
:103F780007D8026912F0010FF7D10020704703201B
:103F880070470320704700BF400D030084B010B590
:103F9800044603A880E80E00089B012B1CD1A36BE4
:103FA80023F48033A363E36823F4840323F04003FA
:103FB800E360E36823F44013E3600F9B012B06D012
:103FC8002046FFF7C5FFBDE8104004B07047E3681E
:103FD80043F48013E360F3E7E36843F04003E360EE
:103FE8002046FFF7B5FF0C9B23B1A36B23F4803366
:103FF800A363E8E7A36B43F48033A363E3E7836831
:1040080043F00103836000207047836823F00103B5
:1040180083600020704708B5C36823F0C043C360BD
:10402800012909D069B9C36843F08043C3603220CD
:10403800FCF794FA002008BDC36843F00053C3603E
:10404800F5E70120F7E70000890141F0200101614F
:1040580000230133054A934205D8026912F0200F64
:10406800F7D1002070470320704700BF400D0300C0
:104078001023036100230133054A934205D80269DE
:1040880012F0100FF7D1002070470320704700BFCF
:10409800400D030070B403339B08002507E000EBD4
:1040A800023404F5805451F8046B266001359D42B2
:1040B800F5D3002070BC7047033292080023934266
:1040C8000CD210B400F58054246841F8044B013335
:1040D8009342F7D308465DF8044B7047084670478B
:1040E8004269806910407047406900F001007047DC
:1040F80010B400F58064D0F8003423F00303C0F84E
:104108000034D0F8003401F003021343C0F800343F
:10411800012905D0022907D000205DF8044B70471B
:104128004BF680336360F7E741F270736360F3E73F
:1041380030B583B0044600250195D0F8403401938A
:10414800019B23F02E030193019B43F48073C0F875
:1041580040346420FCF702FA019B23F48073C4F80E
:1041680040340A20FCF7FAF9284603B030BD82B083
:1041780000230193D0F840340193019B23F02E03D0
:104188000193019B13F4805F01D101290CD0019B9D
:1041980013F4805F05D021B9019B23F48053C0F844
:1041A8004034002002B07047019B43F48053C0F8AC
:1041B8004034ECE784B070B5054605AC84E80E00E1
:1041C80006460024C0F8004E836B23F40013836373
:1041D800836B23F400338363D0F8003423F00403A3
:1041E800C0F800341021FFF72FFF2846FFF740FFE3
:1041F800224609E006EB42134FF0FF31C3F80815D9
:104208000021C3F80C150132069B9342F2D8012114
:104218002846FFF7ACFFC820FCF7A0F90020A861EA
:104228004FF0FF336B6180236B6203F5C003AB6211
:10423800074BC5F80031AB6943F01003AB61AA69BD
:10424800044B1343AB61BDE8704004B0704700BF36
:10425800E0004000080020A382B000230193D0F8BA
:10426800403401930198C0F3414002B0704700F513
:104278008060806880B27047F0B506469DF81840A7
:1042880000EB411505F5A0604FF0FF378760032C60
:104298005DD8DFE804F0024E024040F29D47C76057
:1042A80012F0800F31D1002006F5806ED6F8187410
:1042B80001F00F014FF0010C0CFA01F13943C6F877
:1042C8001814B16941F00071B16112F0800F40D14A
:1042D80000269DF8141002293ED000219B0503F00A
:1042E800FE53D20202F4F0421343A20402F4402225
:1042F8001343BDF81C20C2F30A02134333430B4394
:10430800C5F80035032C2AD0F0BDC76847F480777C
:10431800C7600020C8E740F29D67C76012F0800FB1
:1043280001D10020C0E7C76847F48077C760002044
:10433800BAE740F22527C76012F0800F01D10020AC
:10434800B2E7C76847F4C077C7600020ACE7012030
:10435800AAE74FF40046BCE74FF40031BEE7D5F8B2
:10436800003543F00053C5F80035CDE738B54B7834
:104378000A696AB10C892244013AB2FBF4F292B29A
:10438800B2F5807F05D924020C614FF4807200E0F9
:104398000122CC781CB10C8904FB02F40C610C6975
:1043A800C4F31204334D05EAC24222438C7A6407EF
:1043B80004F0C04400EB43132243C3F8102500F572
:1043C8008065AA6812F0010FD3F8002522F0005288
:1043D800C3F80025D3F800250CBF4FF00054002483
:1043E8002243C3F80025D3F80045234A1460146813
:1043F80024F080441460CA78BAB11F4C226842F491
:10440800004222601C4A146844F000441460126898
:10441800C3F80025CB78F3B90B69E3B1CA79032A4D
:1044280014D8DFE802F0081A081A134C226822F49C
:1044380000422260E6E70333C26A92B2C3F38F03F5
:104448009A4203D2836943F0200383610B8A4A7836
:10445800C968FFF71FFE002038BD03332A6992B2EE
:10446800C3F38F039A42F1D2836943F08063836177
:10447800ECE700BF0000F81FAC00002000F58060EA
:10448800406980B2704710B400EB411101F5A06497
:10449800D1F80035C3F381433BB3022B25D0D1F8C3
:1044A800003543F08043C1F80035D0F8103413F4D8
:1044B8007F0F49D1D1F8003523F00043C1F800350A
:1044C800D1F8003543F00043C1F80035D1F8003584
:1044D80023F40043C1F8003500230133B3F57A7F94
:1044E80027D82268002AF8DB23E0D1F8003543F00A
:1044F8008043C1F80035C36A13F47F0F1DD1D1F88A
:10450800003523F00043C1F80035D1F8003543F0F9
:104518000043C1F80035D1F8003523F40043C1F851
:10452800003500230133B3F57A7F02D82268002AC8
:10453800F8DB00205DF8044B7047D1F8003543F0F4
:104548000043C1F80035F4E7D1F8003543F00043E3
:10455800C1F80035EDE770B505460446FFF755FD8F
:1045680010212846FFF770FD2846FFF781FD00223D
:104578000AE004EB4211D1F8003523F0802343F020
:104588008043C1F8003501320F2AF2D900200346D2
:1045980000E001300F2813D804EB401606F5A0619F
:1045A800D6F8002522F4004242F04042C6F8002521
:1045B8000133B3F57A7FECD80A68002AF8DBE8E71C
:1045C8004FF0FF33C5F814346B612846FFF717FD29
:1045D800002070BD0020704708B5212202742022F7
:1045E80042740022428282820722C28200F02AFE9E
:1045F80008BD08B5A1220274212242740022428219
:1046080082820722C28200F01DFE08BD38B504462A
:10461800D0F87833D9694031FFF7EBFF054620B968
:10462800D4F8C833022120469847284638BD38B503
:104638000546D0F87833DC69217879B9217BB1B99E
:10464800617BF1B9D5F87833D86928B101F038FE23
:10465800D5F878330022DA61002038BD00F045FF34
:104668002178284600F057FF00232370E6E7284604
:1046780000F03BFF217B284600F04DFF0023237309
:10468800DEE7284600F031FF617B284600F043FF53
:1046980000236373D6E770B584B004460123022271
:1046A800114600F0A1FAFF2800F0A1800646014655
:1046B800204600F08FFAD4F87853502001F0F8FD26
:1046C800E861D4F87833DD691A2303FB064393F8CD
:1046D8004A3313F0800F72D16978204600F00AFF40
:1046E8000146287094F81C336A7868890290032080
:1046F800019094F81D030090204600F0E6FE002289
:104708002978204601F004FD00231A460A21204694
:1047180000F06AFAFF286CD01A2303FB004393F8D1
:104728004A3313F0800F52D1AB731A2303FB0043B3
:10473800B3F84C332B831A2303FB004393F852330B
:1047480013F0800F4BD1AB731A2303FB0040B0F872
:1047580054332B83A97B204600F0CCFE6873E97B99
:10476800204600F0C7FE287394F81C33AA7B697BA7
:10477800288B02900226019694F81D03009020468B
:1047880000F0A3FE94F81C33EA7B297B688B029027
:10479800019694F81D030090204600F096FE00262E
:1047A80085F84C603246697B204601F0B1FC324600
:1047B800297B204601F0ACFC304604B070BD6B701C
:1047C8001A2303FB0646B6F84C336B8184E7EB7378
:1047D8001A2303FB0043B3F84C336B83ABE7EB734B
:1047E8001A2303FB0040B0F854336B83B2E702206E
:1047F800E3E70220E1E7704730B583B00546D0F81B
:104808007833DC6994F84D30012B03D0022B19D092
:1048180003B030BD606A228B90420AD9637BE1699C
:1048280001200090284600F018FE022384F84D303D
:10483800EEE7637BE1690122009282B2284600F02C
:104848000CFEF2E7617B01F04FFC012805D002283D
:10485800DED1012384F84D30DAE7636A228B934274
:104868000AD99B1A6362E3691A44E261636A33B145
:10487800012384F84D30CBE700236362F6E7002379
:1048880084F84D302846FFF7B6FFC1E7704738B5C2
:104898000546D0F87833DC6994F84E30032B02D003
:1048A800042B09D038BD237B628B216A00F0EBFD15
:1048B800042384F84E30F5E7217B01F015FC01282C
:1048C800F0D1217B284601F009FCA36A834202D07B
:1048D800628B824206D3002384F84E302846FFF7C5
:1048E800D5FFDFE71B1AA362236A1844206203235B
:1048F80084F84E30D6E7704738B50546D0F8783397
:10490800DC6994F84C30042B04D8DFE803F04C053C
:10491800163C4300012347E0A16CFFF75DFE034608
:1049280030B1012840D0042384F84C3001233BE007
:10493800022384F84C30012336E004F14001FFF7EC
:1049480058FE0346C0B9002384F84C30636C23F04A
:104958007F42A16C4B6823F07F439A4201D0012328
:1049680022E0226C0B689A4201D001231CE0284601
:10497800FFF7C1FF012317E0012815D0042384F8AD
:104988004C30012310E0FFF737FF2846FFF77FFF81
:10499800012309E0002100F017FD38B9002384F84D
:1049A8004C30012300E00023184638BD0123FBE703
:1049B800002305E003F1E002002140F82210013352
:1049C8000E2BF7D9002304E0C218002182F81C112D
:1049D8000133B3F5007FF7D300230370437001223E
:1049E8008270C0F8BC33027640218171437680F82A
:1049F8001C3380F81D231846704708B50378DBB2CE
:104A08000B2B00D008BDD0F87833002BFAD09B6967
:104A18009847F7E770B584B004464378072B00F24F
:104A2800A480DFE803F0042C355E677081920821CA
:104A380000F04DFC18B10125284604B070BD94F86B
:104A48002923A2710125657094F81C3321790292FB
:104A58000026019694F81D2300928022204600F03B
:104A680034FD94F81C336179A2790292019694F886
:104A78001D2300923246204600F027FDDCE7122174
:104A880000F025FC002872D1022363700125D3E7CA
:104A9800012100F066FC08B10125CDE7022001F0F4
:104AA80050FB012584F81C53032363702179A379F3
:104AB80002930026019694F81D3300932B4680221A
:104AC800204600F002FD94F81C336179A279029225
:104AD800019694F81D2300923246204600F0F5FC1A
:104AE800AAE7092100F00CFC002842D104236370D6
:104AF8000125A1E7B0F8361300F002FCD8BB052366
:104B08006370012598E790F8301319B906234370AC
:104B1800012591E7FF2300F58E7200F00AFC60BBC7
:104B280006236370012587E790F8311319B9072325
:104B38004370012580E7FF2300F58E7200F0F9FB32
:104B4800E8B907236370012576E790F8321309B9AD
:104B5800002571E7FF2300F58E7200F0EAFB054699
:104B680000283FF469AF012566E7012564E70125C0
:104B780062E7012560E701255EE701255CE701257D
:104B88005AE798B138B504460D4680F8C02300238B
:104B9800C0F87833C0F87C33FFF70AFF0DB1C4F8CA
:104BA800C853204601F062FA002038BD0220704741
:104BB8000A4659B1D0F87C3353B9591CC0F87C1354
:104BC800DC3300EB8300426000207047022070470E
:104BD8000220704790F838338B4203D980F82013AD
:104BE800002070470220704770B4064600200AE093
:104BF8001A2404FB056595F845439C421AD0FF2BFF
:104C080018D0441CE0B2012813D805461A2404FB26
:104C1800006494F843438C4201D0FF29F1D11A244F
:104C280004FB056494F844439442E1D0FF2AE8D198
:104C3800DEE7FF2070BC704710B5044601F08EFA1D
:104C48000121204601F056FA002010BDC0F8BC131F
:104C5800704708B5D0F8BC330133C0F8BC33FFF750
:104C6800CCFE08BD012380F81F337047002380F86D
:104C78001F33704790F81F03704730B587B004465C
:104C880002238DF81730FFF7F5FF38B923782BB1D9
:104C98002378DBB2032B01D0032323702378DBB204
:104CA8000B2B4AD8DFE803F006131AD0494CB55E3F
:104CB800687283C794F81E33002B3ED001232370FB
:104CC800C82001F03EFA204601F058FA35E094F881
:104CD8001F33012B31D1022323702EE0642001F011
:104CE80030FA204601F0ECF984F81D0305232370FF
:104CF8000021204600F0FEFB60718021204600F074
:104D0800F9FB0146207194F81C33A2790292002520
:104D1800019594F81D2300928022204600F0D5FBCF
:104D280094F81C336179A2790292019594F81D23B5
:104D380000922A46204600F0C8FB002007B030BD8C
:104D48002046FFF767FE0028F7D1002384F82033B8
:104D580094F83333012B02D007232370EDE708239F
:104D68002370EAE7D4F8C833002BE6D001212046A7
:104D7800984708232370E0E794F83913204600F099
:104D880001FB0028D9D109232370D6E794F83B33D7
:104D980013F0200F02D10A232370CEE70121204609
:104DA80000F001FB0028C8D10A232370C5E7D4F816
:104DB8007C33002BC1D00023C4F8783373B1D4F806
:104DC80078331BB39B6820469847E0B906232370C5
:104DD800D4F8C833032120469847AEE703F1DC0234
:104DE80004EB82025268117994F84323914202D06D
:104DF8000133DBB2E2E703F1DC0204EB8202526822
:104E0800C4F87823F4E70D23237096E70D23237065
:104E180093E7D4F878335BB11B69204698478DF83F
:104E280017009DF81730002B87D10B23237084E7D8
:104E38000D23237081E7D4F87833002B3FF47DAF3E
:104E48005B692046984778E72046FFF7B1FDD4F81C
:104E58007833002B3FF471AFDB6820469847002376
:104E6800C4F8783369E708B503784BB9012380F8AB
:104E78001E33D0F8C8330BB104219847002008BD71
:104E880090F81F33012BF9D102230370F6E710B510
:104E9800044601F06BF92179204600F03CFB61796A
:104EA800204600F038FB002384F81E33D4F8C833BA
:104EB80013B1052120469847204601F04FF90323F6
:104EC8002370002010BD10B40B7803704B7843702A
:104ED8008B78CC7843EA042343800B7903714B79B0
:104EE80043718B798371CB79C371082A16D90B7AF0
:104EF8004A7A43EA022303818B7ACA7A43EA022375
:104F080043810B7B4A7B43EA022383818B7B837338
:104F1800CB7BC3730B7C03744B7C43745DF8044BED
:104F280070470B7803704B7843708B788370CB781D
:104F3800C3700B7903714B7943718B798371CB798A
:104F4800C3710B7A037270470B7803704B78437008
:104F58008B788370CB78C3700B794A7943EA022344
:104F680083808B79837170474378032B00D0704717
:104F78000378023B9A4228BF1A4692B20023934212
:104F88000DD210B4C418A47801F8014B02339BB2B7
:104F98009342F7D300230B705DF8044B704700234E
:104FA8000B70704730B583B00446037E013B0A2B73
:104FB80000F2DA80DFE803F0061037435664808C8D
:104FC8009FADC400427900F1100100F00FFA0223EE
:104FD8002376012003B030BD417901F085F801281E
:104FE80005D004281BD0022819D00120F2E7237C21
:104FF800E28A4AB113F0800F03D1052323760120FA
:10500800E8E703232376E5E713F0800F03D10723AE
:1050180023760120DEE7092323760120DAE70B2334
:1050280023760120D6E7D0F8BC33C381037982897F
:10503800816800F002FA042323760120CAE7017987
:1050480001F052F8012806D0052800F08F800428C6
:1050580004D00120BEE709232376F5E70B23237646
:105068000120B7E74379828901250095816800F01E
:10507800CEF9D4F8BC33E381062323762846A9E782
:10508800417901F031F8012807D0052808D0022815
:105098000AD004280CD001209CE70723237699E73F
:1050A8000C232376032095E705232376012091E737
:1050B8000B23237602208DE703790022114600F0A6
:1050C800BCF9D4F8BC33E38108232376012081E7B7
:1050D800017901F009F8012805D0042807D005282E
:1050E80046D0012076E70D232376002072E70B23B4
:1050F800237601206EE743790125009500221146A9
:1051080000F085F9D4F8BC33E3810A2323762846D6
:1051180060E7417900F0E8FF012805D0022807D0B0
:10512800042809D0012055E70D232376002051E7F4
:105138000923237601204DE70B232376012049E735
:10514800437E0133DBB24376022B07D9D0F8C8334C
:10515800062198470023637602203BE701F006F812
:1051680001202076A07035E7012033E7032031E7DE
:1051780003202FE703780A8813440B800378184428
:1051880070472DE9F04182B00C460B7803704B78DC
:1051980043708B78C97843EA0123438023790371EC
:1051A80063794371A3798371E379C371237A0372B5
:1051B800092A44D905460923ADF806300026012EF0
:1051C8003DD86A88BDF806309A4238D90DF10601F3
:1051D8002046FFF7CFFF04464378042BEFD1B046B3
:1051E8001A2000FB06F00830284421460230FFF759
:1051F80098FE00271A2303FB08539B7BBB421BD94D
:105208006A88BDF806309A4216D90DF10601204683
:10521800FFF7B0FF04464378052BEBD101371A207E
:1052280000FB08F000EBC700083028442146043092
:10523800FFF78AFEFFB2DDE70136F6B2BFE702B03C
:10524800BDE8F0818378012B03D0022B09D001231C
:1052580005E081608281012303760222827018466C
:10526800704710B50446FFF79DFE034630B103288A
:105278000AD0022806D10122A27003E00122A270FE
:1052880000222276184610BD0122A2700022227642
:10529800F8E738B5BDF810508478012C04D02A46B8
:1052A8001946FFF7CFFF38BD61F07F04047406216B
:1052B8004174428202F47F44B4F5407F03D0002257
:1052C8008282C582EBE740F209428282F9E7F0B5B3
:1052D80083B0044600F58E750E4600912B464FF4B8
:1052E80080720021FFF7D5FF074610B1384603B09A
:1052F800F0BD3246294604F22230FFF7E4FDF5E717
:10530800F0B583B004460E4600F11C0500912B460B
:105318004FF400720021FFF7BCFF074610B1384672
:1053280003B0F0BD3246294604F54D70FFF729FF5A
:10533800F5E7F0B583B017461D4600F58E74009367
:10534800234641F440720021FFF7A3FF064610B13F
:10535800304603B0F0BD2A4639462046FFF704FE22
:10536800F6E708B58378012B04D000221146FFF731
:1053780069FF08BD002303740522427441828382B9
:10538800C382F2E708B58378012B04D000221146C6
:10539800FFF758FF08BD00230374092242744182B5
:1053A8008382C382F2E708B58378012B04D00022F8
:1053B8001146FFF747FF08BD002303740322427418
:1053C80041828382C382F2E708B58378012B04D037
:1053D80000221146FFF736FF08BD0223037401239C
:1053E8004374002343828182C382F1E730B585B0DC
:1053F8001546002403940823029301910094234640
:105408002246294600F0DDFE204605B030BD30B505
:1054180085B00C4619469DF8203090F81D5305B10B
:1054280000230393029201940123009300231A4658
:1054380000F0C7FE002005B030BD30B585B01D4670
:1054480000240394029201910122009223462946E6
:1054580000F0B7FE204605B030BD30B585B00C462B
:1054680019469DF8203090F81D5305B10023039389
:1054780002920194012300930223002200F0A1FE6E
:10548800002005B030BD30B585B01D46002403941A
:1054980002920191012200920223294600F091FE16
:1054A800204605B030BD00230A2B0BD803F1E002DB
:1054B80050F8222012F4004F02D00133DBB2F3E798
:1054C80098B270474FF6FF70704710B584B0BDF8BA
:1054D800204002949DF81C4001949DF818400094C7
:1054E80000F054FE002004B010BD08B500F061FEC5
:1054F800002008BD38B505460C46FFF7D4FF4FF627
:10550800FF73984205D044F4004400F1E00345F8E5
:105518002340C0B238BD0A2906D8E03150F82130FE
:10552800C3F30E0340F82130002070472DE9F04FF7
:105538008DB000240794089409940A940B94704B36
:10554800DA6C42F01002DA64DA6C02F010020192AE
:10555800019ADA6C42F00402DA64DA6C02F00402AE
:105568000292029ADA6C42F08002DA64DA6C02F093
:1055780080020392039ADA6C42F00102DA64DA6C70
:1055880002F001020492049ADA6C42F00202DA6430
:10559800DA6C02F002020592059ADA6C42F008020F
:1055A800DA64DB6C03F008030693069B224640F29C
:1055B80009115448FBF73AF922460C215248FBF7E7
:1055C80035F9524F01224FF400713846FBF72EF996
:1055D80022464FF400613846FBF728F9224680211D
:1055E8004B48FBF723F94FF0080BCDF81CB0012509
:1055F800089509944FF00208CDF8288007A941487A
:10560800FBF72AF84FF410530793424E0896099473
:1056180007A93846FBF720F807230793089409944D
:1056280007A93846FBF718F82F2307930894CDF8F5
:10563800248007A94FF09040FBF70EF8102307933A
:105648000896099407A94FF09040FBF705F8042342
:105658000793089509954FF00309CDF8289007A9F5
:105668002948FAF7F9FF4FF4807ACDF81CA008957D
:105678000995CDF8289007A92248FAF7EDFF4FF4CD
:1056880020630793089509940A9407A93846FAF7FE
:10569800E3FF052307930896099407A91C48FAF71E
:1056A800DBFF8023079308950994CDF8289007A974
:1056B8001748FAF7D1FFCDF81CB0089509940A9459
:1056C80007A91148FAF7C8FFCDF81CA00896099455
:1056D80007A90D48FAF7C0FF0795089509940A9499
:1056E80007A90848FAF7B8FFCDF81C80089609946E
:1056F80007A90448FAF7B0FF0DB0BDE8F08F00BF66
:10570800001002400010004800040048000800484B
:10571800000C00480000121038B50D4C0D4B2360EA
:105728000D4B63600025A5600123E3602561656179
:10573800A561E56125622046FBF725FE294620463E
:10574800FBF77FFE29462046FBF7A9FE38BD00BFC0
:105758003401002000540040EC9C901038B50D4CEA
:105768000D4B23600D4B63600025A5600123E360AA
:1057780025616561A561E56125622046FBF703FEA9
:1057880029462046FBF75DFE29462046FBF787FEA3
:1057980038BD00BF8001002000580040EC9C9010EC
:1057A80008B50A480A4B03600023436083600C2253
:1057B800C260036143618361C361036203638362FF
:1057C800C3624362FBF7ADFE08BD00BF5C02002068
:1057D8000024004008B50748074B0360FF234360D7
:1057E800012282600023C360026143618361FBF789
:1057F800A5FF08BD9C030020001000A070B51F483D
:105808001F4B03600024046344604026466384639E
:10581800C46384600461446184611A4BC361C460D9
:1058280044628462C4620823036401254564846475
:10583800C464046544658465C5650466FDF71CFC9D
:105848001148124B03600463032343604663846377
:10585800C463856004618461C46044628462C46214
:105868001823036445648464C464046544658465DA
:10587800C5650466FDF700FC70BD00BF98020020F6
:105888000454014000EE0200CC01002024540140E1
:1058980008B50E480E4B03604FF482734360002333
:1058A80083604FF44072C260036143614FF4007239
:1058B8008261C3610362436283620722C262036337
:1058C80008234363FDF789FD08BD00BFD000002011
:1058D8000038004008B50948094B03604FF4E1332C
:1058E800436000238360C36003610C2242618361CB
:1058F800C36103624362FEF7FAFA08BD1C03002085
:1059080000440040F0B5B9B04422002127A800F0B7
:10591800DFFC00242294239424942594269488223E
:105928002146684600F0D4FCFBF780FE234AD2F8F3
:10593800903023F01803C2F890301C2327930125D8
:1059480029952C952D952E9460232F930226319618
:10595800329533952823349307273597369637960B
:1059680027A8FBF7EDFF0F23229303232393249407
:1059780025942694042122A8FCF7D0FA104B009312
:105988000F941494159419944FF4007421944FF0C3
:1059980080631B930195029518230393049705963A
:1059A80006964FF4881307936846FCF76FFD204668
:1059B800FBF74CFEFDF736FB39B0F0BD0010024096
:1059C800C228020080B582B0FAF7A0FDFFF79AFF5F
:1059D800FFF7ACFDFFF7A0FEFFF7C0FEFFF7E0FE04
:1059E800FFF7F8FEFFF70AFFFFF752FFFFF772FF16
:1059F80000F0A4FA00F0C2FA6420FAF7AFFD1C4DDB
:105A0800002280212846FAF711FF1A4C4FF020088F
:105A180084F80080184E4FF0FF33012221463046AB
:105A2800FDF733FD0F2323704FF0FF33012221468A
:105A38003046FDF72AFD012280212846FAF7F6FEB6
:105A4800274607F8018B002280212846FAF7EEFE48
:105A58004FF0FF33009301233A4621463046FDF7C5
:105A680002FE012280212846FAF7E0FEC2E700BFC5
:105A7800000C0048B0000020D00000207047000053
:105A880082B00A4B1A6E42F001021A661A6E02F0D0
:105A980001020092009A9A6D42F080529A659B6DBD
:105AA80003F080530193019B02B07047001002403D
:105AB80010B58AB0002305930693079308930993BA
:105AC8000368264A934204D0254A934223D00AB059
